:10000000F809002019280000152600001528000016
:1000100015280000152800001528000015280000EC
:100020000000000000000000000000001528000093
:100030001528000000000000152800001528000009
:10004000C1220000CD22000081230000000000003A
:1000500000000000000000000000000000000000A0
:100060000000000000000000000000000000000090
:100070000000000000000000000000000000000080
:100080000000000000000000000000000000000070
:100090000000000000000000000000000000000060
:1000A0000000000000000000000000000000000050
:1000B0000000000000000000000000000000000040
:1000C0000000000000000000000000000000000030
:1000D0000000000000000000000000000000000020
:1000E0000000000000000000000000000000000010
:1000F0000000000000000000000000000000000000
:1001000000000000000000000000000000000000EF
:1001100000000000000000000000000000000000DF
:1001200000000000000000000000000000000000CF
:1001300000000000000000000000000000000000BF
:100140000348044B834202D0034B03B11847704766
:10015000300100203001002000000000064B07495C
:10016000C91A891048BF0131491003D0044B0BB1A3
:1001700001481847704700BF3001002030010020BF
:100180000000000010B5064C237843B9FFF7D8FFF4
:10019000044B13B10448AFF300800123237010BD5A
:1001A0004801002000000000902E000008B5054B1B
:1001B0001BB105490548AFF30080BDE80840FFF7D3
:1001C000CDBF00BF000000004C010020902E0000B9
:1001D00008B50F490F4800F035FC60B905204FF411
:1001E0007A7102F0EBF90B4800F01AFC48B9BDE84F
:1001F000084002F093BB1521074B084A084802F05B
:10020000D5F91C21044B054A054802F0CFF900BF7F
:10021000B82B00007C010020542B00007C2B000038
:10022000682B0000022800D070470249024800F005
:1002300023BD00BFC02B00006401002008B5FFF7FC
:10024000C7FF002008BD00BF544B02689A4200F06F
:10025000A28070B581670B6804460D46002B00F044
:100260008D804F4A1378022B25D84E4901EB43016C
:1002700081614D4901EB4301C1614C4901EB4301EF
:1002800001624B4901EB830141624A4901EB4301A1
:100290008162494901EB43010161484901EB430196
:1002A0004161474903EB430001EB4001C4F8801072
:1002B000297C0B441370288BEB7C002866D184F8D2
:1002C0002C302B7D84F82D30EB8AE3852B8B238615
:1002D0002B7C002B3AD00022134611462E6806EBE9
:1002E000020CA669BCF804E0BCF802C026F81310A2
:1002F000E669E64588BF032026F81310266A26F82B
:100300001310666A46F82310A66A26F813102E68A2
:1003100006EB020CBCF802C0266926F813C02E6852
:1003200006EB020CBCF804C0666926F813C0D4F8CA
:100330008060013306EB020CACF8021095F810E077
:100340005FFA83FCE64502F10602C7D8B0B1EB695B
:100350002A685B68A97E93F824305B002AB12A7C66
:10036000C2EBC202023213449BB2164A053322F892
:100370001130154A094B1460236070BDEB69E367C7
:10038000D3E90112186812689047E0E7984294BFD9
:100390000320002093E70E20704700BF43554F54C1
:1003A000180200200C020020080200200402002095
:1003B000FC010020F801002014020020100200209F
:1003C000EC0100208C01002088010020C36F034A4B
:1003D00010609A6818685368184700BF88010020A9
:1003E0000020704710B4C06F846800686469A44638
:1003F0005DF8044B604700BF30B5C36F83B09A68A7
:100400000D46044601A918689368984741F2707335
:10041000984230D041F2727398422CD0A36F1A7C6C
:1004200042B34FF0000C0DF1040E12E0EB8802FB1A
:1004300003F32269525AB3FBF2F39BB24352A36F08
:10044000197C0CF1010C5FFA8CF291420EF1020E54
:1004500010D9E26F4FEA4C0152685279012AEFD16C
:10046000A269BEF8003032F81C2028689A1ADDD53F
:100470000023E3E7002003B030BD00BF836F1A7C88
:10048000002A40D04FF0000C624630B51F4C1B686C
:10049000CD8863445B88B1F804E005FB03F3B3FB4C
:1004A000FEF305690CF1060C25F8123003690D7A8C
:1004B00033F8123005FB03F3A4FB035345695B09D2
:1004C00025F8123005690B6835F812E033F8123060
:1004D0000EFB03F3A4FB03E35B0925F8123091F84C
:1004E00008E09BB203FB0EF3A4FB035345695B09D1
:1004F00025F81230836F013293F810E0D5B2AE4583
:10050000C5D8002030BD0020704700BF1F85EB51CB
:1005100003460020D985704750B1064B02689A42C5
:1005200004D1C36F9A681868D368184707207047CA
:100530000120704743554F54A8B138B50B4B0268A2
:1005400004469A420DD1D0E91E01094A007C137875
:100550008D681B1A0868A9691370884700232360F7
:1005600038BD072038BD0120704700BF43554F54A8
:10057000180200202DE9F84FC36F8A469A68044696
:10058000CC4918689368984741F27073984200F01C
:10059000028141F27273984200F0FD80D4F878C075
:1005A000D4F880109CF81030002B3BD000234FF083
:1005B00001091A4618461F46BE4DE66FBE46D6F8DC
:1005C00004C003EB43089CF850C081F804C0E66FF8
:1005D000D6F804C09CF805C0BCF1010F00F0DD8026
:1005E000A76937F803C007EB0308BCF1000F01D17E
:1005F000A8F80000D4F878C001329CF810E0D7B217
:10060000774501F1060103F10203D6D3BEF1000FD5
:1006100008D0BAF1000F05D0D4E90223CAE90023BB
:10062000D4F878C09CF81A20002A00F0C981A249A9
:10063000013A93B2881C00EB4300002331F8022FEB
:10064000134481429BB2F9D11A4603F1010E9F1C5B
:10065000D11C04331FFA8EFEBFB29BB289B2974EF3
:100660009748357885549CF81A2000F80E20E26FE0
:100670005268527902F0F702012A00F070810122DB
:10068000C255DCF81C20576897F8242097F825708D
:1006900012FB07F2D2B2425411B2E2B1854A03EB27
:1006A0008108118803F1010E52889F1C03F1030990
:1006B0005FFA81FA1FFA8EFE090A00F803A0BFB2A2
:1006C00000F80E101FFA89F9D1B2120AC1551FFAAB
:1006D00088F300F809209CF81020002A54D000224A
:1006E000C2545F1C991C9CF81030BFB289B2C3552C
:1006F000002B00F06B810B46D4E90218C2F12007F1
:10070000D14008FA07F73943A2F1200728FA07F782
:10071000394301F00101C154A16903F1010E11F83F
:1007200012101FFA8EFE00F80E10A1699F1C31F8FE
:100730001210BFB2090AC155216903F1030E11F865
:1007400012101FFA8EFE00F80E1021691F1D31F8DD
:100750001210BFB2090AC155616903F1050E11F803
:1007600012101FFA8EFE00F80E1061699F1D31F8FD
:100770001210BFB2090AC1559CF81070013291B233
:1007800007338F429BB2B7D8C55401339BB2C35CC9
:10079000002001353570BDE8F88FA06F006810F8B3
:1007A0000800D4F8188035F8100038F803B09844E1
:1007B000BBF1000F3FF41CAF4FF000060F704E70FE
:1007C000A669F75A266936F803804744B7F5803F93
:1007D0006DD26669874236F803E073D24FF00007A6
:1007E000266AF752D4F81CE094F82C803EF8037087
:1007F000B8457AD8A1F802C0278E94F82CC0BC4521
:10080000C0F09F80A2F12007C2F1200CE66829FA0F
:100810000CFC09FA07F747EA0C073743A668E760BC
:1008200009FA02F73743A76091F800E091F801C098
:10083000E78D002F3FF4DEAED4E90278CEF1200B35
:1008400027FA0EF7F44408FA0BFBAEF1200E28FA53
:100850000EFE47EA0B0747EA0E0717F00107D4F828
:1008600024E061D15EF82C6006EB00084EF82C8085
:10087000D4F8288038F81CE00EF1010E28F81CE0AE
:10088000A66AB4F82EE036F81C80F045FFF4B2AE4C
:10089000666A56F82C80A669B8FBFEFE26F81CE0B6
:1008A000666A46F82C70A66A26F81C70A2E64FF01D
:1008B000000CBDE71C0200208A0100209C010020E2
:1008C000A0010020A7EB0E07BFB2B84210D24FF034
:1008D0000006E769FE52D4F820C094F82DE03CF8F9
:1008E0000370BE4529D84E8005E001372EF803700D
:1008F0004F88012F86D0A2F12007C2F1200CE668B4
:1009000029FA0CFC09FA07F747EA0C0726EA070759
:10091000A668E76009FA02F726EA0707A76091F8D8
:1009200000E091F801C083E700264FF000074EF881
:100930002C60A66A26F81C705CE601372CF8037060
:10094000D6E7D4F81CE03EF803C0674533D84FF033
:1009500000062EF803604E80A769F852C8E700220F
:10096000C255DCF81C20526892F824204254002A18
:100970003FF4B1AEDFF858E05F1CBEF80010BFB224
:100980005FFA81F8012A4FEA112100F80380C1556E
:100990000DD0BEF80210DF1C03F1020E5FFA81F8E1
:1009A0001FFA8EFEBFB2090A00F80E80C15503EB94
:1009B000420293B28FE60CF1010C2EF803C097E7C8
:1009C0000321042302274FF0010E48E60B46DBE625
:1009D0001C0200208BB1084670B5094E8D1A12F822
:1009E000014B06EB000E5019C0B2A0EB010C9C4568
:1009F0008EF80041F3DB002070BD0020704700BF7F
:100A000000400D4001F1402101F5502191F800C155
:100A100000202CEA030C42EA0C0281F80021704706
:100A200043685B7923B1064A537843F0200353703F
:100A3000034A0020537843F0C0035370704700BF4F
:100A400000400D4070B506460C46EFF310800122C1
:100A500082F310882A4B996821F0100199609B68F5
:100A600080F310882749284D91F8853100201343E1
:100A700081F88531E379DB0143F00403DBB2EB70ED
:100A8000237961795B0103EB8113A1780B44E17851
:100A900003EB8103DBB22B706A7001F091FE1B4BFC
:100AA000002093F8502022F0800283F850206278D2
:100AB000AA70227883F8502093F8502093F85020A1
:100AC00042F0800283F8502001F04AFE6379012B46
:100AD00009D00422EB78002062F30403EB700C4B86
:100AE000C6E9003470BDEA78A37902F080020433CD
:100AF0001343DBB2EB70064B0020C6E9003470BD37
:100B00000040084000F8014000400D4000E0014076
:100B100044434C530022034610461A60704700BFFE
:100B20000120CBB2984080B202B900040B0A5B01ED
:100B300003F1804303F5F83398600020704700BF4D
:100B40002DE9F8430388BBB107464FF00008DFF8F2
:100B5000789000241B4D4FEAC8067B6835F8022BBD
:100B600099198988914209D00134032CF5D13B8829
:100B700008F101084345ECD8BDE8F8839B5904F11E
:100B8000200203F0B853B3F1807F19F812300CD073
:100B9000DB09E9D019F81230012123F08003C820C5
:100BA00009F8123001F00AFDDEE7DB09DCD119F8A3
:100BB0001230012143F08003C82009F8123001F0FF
:100BC000FDFCD1E76C2D000000300840F8B506466A
:100BD000FFF7B6FFEFF31082012383F31088234F52
:100BE0003B681BB92249CB704023CB703B68013373
:100BF0003B6082F31088338823B300211D4D08E049
:100C00001B01134445F82340328801318BB29A42CC
:100C100018D9736853F8314003EBC1029288E0039E
:100C20004FEA1223D2B2EBD502EB031055F820E0C5
:100C300024F4803C2EF4803E45F820E01B0145F86A
:100C400020C0DEE7EFF31082012383F310883B68B6
:100C500013B13B68013B3B603B681BB980200449F2
:100C6000CB70C87082F31088F8BD00BFAC030020C1
:100C700000FD014000F8014008B5034B0360084641
:100C8000FFF7A4FF002008BD54524F5008B5084696
:100C9000FFF79CFF002008BD844630B482B001916C
:100CA00000921D4990F904201C4D51F82200C032D9
:100CB00055F822101A4C21F0807145F822109CF949
:100CC000041041F40041E28992B29142FBD0082223
:100CD0002274019A0AB1019A4260009A0AB1009AFC
:100CE0008260C27802F0C001802913D03F2A98BFE9
:100CF000C381182200200A4B08491A749CF9043059
:100D0000C03351F8232042F0807241F8232002B012
:100D100030BC70478381ECE7000000200060004099
:100D2000005400400620704706207047034693F9A0
:100D300004300549C03351F82320002042F080726E
:100D400041F82320704700BF00600040034693F93C
:100D500004300549C03351F82320002022F080726E
:100D600041F82320704700BF00600040002290F946
:100D70000400124B53F82030C1E90022DA783F2AF0
:100D80000CD94FF480728A60DA89D2B2CA60DA78FC
:100D900002F0C002802A09D0002070474FF4803250
:100DA0008A60DB8900209BB2CB6070474FF48032B1
:100DB0000A609B8900209BB24B60704700000020B6
:100DC00006207047062070470346002230B593F98D
:100DD00004C0074C0CF1C00E54F82E10054D21F044
:100DE000807144F82E1045F82C201A60104630BD52
:100DF000006000400000002030B5864690F90430C5
:100E00001C4DC03355F823201B4C22F0807245F84E
:100E1000232090F9042042F40042E3899BB29A42D5
:100E2000FBD00B46DA789C463F2A05D9DA89D2B244
:100E300002EB022292B2DA819CF8022010333F2AA0
:100E4000F0D84FF0080C18220B4B0C4D83F810C053
:100E50009EF904C0074C45F82C101A749EF9043012
:100E60000020C03354F8232042F0807244F823203D
:100E700030BD00BF00600040005400400000002072
:100E8000F8B5274A044613780D4643B36B6893F9C7
:100E90000030002B40DB234850F82320002A3DD1AE
:100EA00023712D68BDB12B46DA7819463F2A05D942
:100EB000DA89D2B202EB022292B2DA818A78103356
:100EC0003F2AF1D808211822174B197494F90410FD
:100ED00040F821501A74154B00202360F8BD0126FC
:100EE0001670EFF3108086F31088114A116821F410
:100EF00080011160126880F310880A4F19464FF480
:100F00008072384601F0DCFD074B5F611E736B6831
:100F100093F90030002BBEDA0B20F8BD0820F8BD95
:100F200020020020000000200054004000435444F0
:100F3000004008400379022B06D0836F1B7C012BF5
:100F400014BF05200020704741F27070704700BF49
:100F500084460020CCE92232CCF88010704700BFD4
:100F600070B5836F354D1A7C044695F800C032B1D8
:100F7000BCF1010F03D0C2790AB1002070BD4FF05F
:100F8000010E40F20332186BF44543681968238957
:100F9000A1F80EE003EB43039BB28B814B8803EA7D
:100FA000020343F428434B80636A4B60244B8B60FD
:100FB0003AD0A379092B04BF23898B818368006809
:100FC0005B6898470028D9D14FF0010C40F20333F9
:100FD000A16F2289486B02EB4202416892B2096814
:100FE0002D78A1F80EC08A814A88654503EA02037C
:100FF00043F4104343F018034B80A26A114B4B603B
:101000008A6016D0A2792389092A1CBF03EB430307
:101010009BB28B81A26A0B4B8A604B608368BDE8F0
:1010200070405B6800681847074BA1F80CC04B6024
:10103000C4E7064A8D818A604B60EFE730020020EA
:1010400020000D4024000D40340200203802002012
:1010500010B54379044623B95B4B1A78920740F1E7
:1010600084802379032B00F0918094F97C20574BE6
:10107000204643F8224094F97D2043F8224094F919
:101080007E2043F82240FFF76BFF00286CD1637984
:10109000002B71D14C4A137803F0F9031370A37934
:1010A000112B59D0212B57D0474B94F85820197841
:1010B00094F859C0D20101F03F0142EA8C120A4370
:1010C000D2B21A70597894F8202001F0370122F03A
:1010D00037020A435A70997894F8752001F0CC01D0
:1010E00002F033020A439A70A279092A51D01F22D2
:1010F0005A711A6822F080421A601A6822F000427F
:101100001A609A6842F480329A609A6842F4003217
:101110009A609A6842F480229A6094F85A202A4B86
:101120001A7394F85B205A7394F85C209A7394F8BD
:101130005D20DA7394F85E201A7494F85F201A75B3
:1011400094F860205A7594F861209A7594F862209A
:10115000DA7594F863201A7602231B4A23712371EF
:10116000137843F00103137010BD1B78DB077FF584
:1011700078AF41F2707010BD134B1A7842F006023E
:101180001A701A7802F0FE021A7088E741F2717044
:1011900010BD3F225A711A6842F080421A601A68E4
:1011A00042F000421A609A6842F480329A609A686B
:1011B00022F400329A609A6822F480229A609A6837
:1011C00022F400229A60A8E700000D40B00300203E
:1011D0000389002B00F0AF802DE9F04F002683B08B
:1011E0003346B4460CE04FF001020CF1010C0A70DA
:1011F0000289013399B28A4206F10C0640F29180CD
:101200000169CA5C1944002AEDD19646D0F81480D1
:1012100003EB4304A4B218F803506400CDF804C0F3
:1012200045FA02F111F001014ED18179012965D011
:10123000C16BB0F896C00F5B4FEA5C0CD0F824A0ED
:1012400090F874905AF8061008EB030BC1F387214D
:1012500001FB0CCC0131C1EB0111CCF3CF0C21F01F
:10126000604141FA09F1A7EB0C0797FBF1F75AF837
:1012700014900AEB4401C9F3090C17EB0C0C4FEA6C
:10128000440A2FD4BCF5806F3FDB012140F2FF3CC4
:10129000914029448BF80010416A51F80A9051445A
:1012A00029F47F7525F003050D60456A55F80A108D
:1012B00041EA0C0145F80A10D0F8148018F80350E0
:1012C00045FA02F101F001010132032A8E4404F1D2
:1012D0000204A5D1BEF1030FDDF804C088D1016975
:1012E000194480E701219140294408F80310416A1C
:1012F0004FF0000C51F814905144D1E7B0F894C06D
:10130000C16A4FEA5C0C0F5B98E7002FC8D101213E
:10131000914029448BF80010416A51F80A905144D9
:10132000BEE7624502D003B0BDE8F08F0123C37170
:1013300003B0BDE8F08F0123C371704741F27173B0
:101340000279032A0CBF1846002070470379022B4C
:101350006DD0C379002B67D0836F93F85030012B89
:101360000BD030B5032A06D8DFE802F0021C3D0B93
:101370008379012B5ED0002030BD022AF1D11320E9
:1013800070478379012BF6D10389002BF3D000231A
:10139000C26ED25C013321F8022B04899AB29442C6
:1013A000F6D8E8E78379012BE5D10389002BE2D059
:1013B00000248A1D94462546A4EB010EC36A0B4403
:1013C00033F80E3021F8023B6145F7D1B0F808E060
:1013D0000135ABB29E4511460CF1060C04F1060432
:1013E000C9D90632E8E78379012BC4D10389002BE0
:1013F000C1D000248A1D94462546A4EB010E036B40
:101400000B4433F80E3021F8023B6145F7D1B0F8B8
:1014100008E00135ABB29E4511460CF1060C04F113
:101420000604A8D90632E8E741F27270704741F22B
:10143000707070470389002B9DD000248A1D94464C
:101440002546A4EB010E836A0B4433F80E3021F8D5
:10145000023B6145F7D1B0F808E00135ABB29E45DB
:10146000114604F106040CF1060C84D90632E8E7B3
:101470000379022B1ED0C379CBB1837903F0030328
:10148000012B01D0002070470389002BFAD00023E4
:10149000426B31F802CB02EB8302A2F802C0B0F833
:1014A00008C001339AB29445F2D80020704741F247
:1014B0007270704741F27070704700BF00282ED0E4
:1014C00010B5184B026804469A4210D11649007AAA
:1014D0000B88A2791B1A02F00302DBB2012A0B80EF
:1014E00007D06BB1002000232371236010BD0720BB
:1014F00010BD0E490A88121AD2B20A80002BF1D10F
:10150000A36F1B6B9A681868136A98470028EAD182
:10151000A36F5B6B9A681868136A9847E3E701202A
:10152000704700BF555354436A0300204003002016
:101530000379022B01D00020704710B504460D4AF4
:10154000136883F011031360836F93F93C0001F07B
:101550007FF8A36F93F93D0001F07AF8A36F93F938
:101560003E0001F075F8012200232271C4F80A3010
:10157000002010BD00000D402DE9F0419DF81840FD
:10158000072C5CD0012402EB420E304D4FEACE0E08
:101590000EF1220ECF00AE441E1902FA04F83EF8F6
:1015A00002CF06FB0CFC67454BD301340B2CF6D164
:1015B00008EB020705EBC707B7F838C00A2706FB98
:1015C0000CFC424407EB820704EB820205EB470464
:1015D000648C05EB420206FB04F405EB4707B7F801
:1015E0008260B2F882204FEAEC0CACEBE40C921B68
:1015F000A1EBE40404FB02F292FBFCF2062B324462
:1016000008D8914235BF130B0B0B4B435343B3F533
:10161000803F0DD202FB01F1B1F1805F4FEA11333F
:1016200011D34FF6FF7201230280AB72BDE8F08147
:1016300001224FF6FF73AA720380BDE8F0810023F8
:10164000FAE7671EBDE79BB2F6E700BF3002002055
:101650002DE9F04F90F874308DB0049307898379A9
:101660000593002F5AD0002504469C46A946616A7E
:10167000DDF810E051F815206E00C2F38720834694
:1016800006AB01EB4501013051F8042BC2F309020E
:1016900000FB02F2C2EB0212D20022FA0EF243F871
:1016A000042B09AA9A42EFD1BCF1010F39D0BCF149
:1016B000090F0AD009F101091FFA89F39F4205F1C8
:1016C00006052BD994F806C0D1E7A36A676B33F8F7
:1016D0001910734B57F806801B7807EB060A022B8C
:1016E00000F0D580AAF80210A28B012A0DD9BAF811
:1016F00002301B04B3FBF2F3B8FBF2F2A8EB0208D2
:101700004344BB531B0CAAF80230278909F1010995
:101710001FFA89F39F4205F10605D3D80DB0BDE845
:10172000F08FE36A03EB0508404608F10607A5EBD6
:1017300008065B4BA26A1B780244022B915B00F007
:101740009F80018002308742F3D1DDE906E1A28B60
:101750004FEA8900089B0390002AD6D0D4E90C2CCC
:10176000B8F800605CF829005653B8F802702A44B3
:1017700001EBC7014B4F8901A7FB01A7C91B07EB71
:101780005101039FBEEB511F029267444FEA511A69
:101790006ED24FF6FE7BAAEB0E0ABBEBDA0F4FEAD6
:1017A000DA016AD389B2029A5180B8F804803E4ABD
:1017B00003EBC8039B01A2FB03A8A3EB080308EB00
:1017C0005303BEEB931F4FEA93184FD2A8EB0E0EB4
:1017D0004FF6FE78B8EBDE0F4FEADE034AD39BB23A
:1017E000029A0DF1240E9380E26E0DF1300802EBA7
:1017F000090B721A0992F21A0A92CA1A0B925EF82F
:10180000042B002ABCBF52424EF8042CC645F6D128
:10181000DDE9098EB8EB4E0F0B9A20DA02EB420A93
:101820000AEBDA7AB8EB6A0F19DA731803214FF66C
:10183000FF729342A8BF13467B808BF800107B8811
:10184000A28B1B04B3FBF2F3B0FBF2F2801A039AF3
:1018500003442CF802301B0C7B8027892AE796452D
:10186000ABBF5B18052106219B19E0E70023B7E712
:10187000002198E74FF6FF73B2E74FF6FF7192E74A
:10188000059B049A00935B46FFF776FE5AE7059A9C
:101890005B4600920AF10200049AFFF76DFE23E70F
:1018A000300200209F12E4293970E0C038B5037976
:1018B000022B46D0836F04461B7C002B3FD103795B
:1018C0000D46032B08D0A38BC3B1A37903F0030308
:1018D000012B16D0002038BDC379012B22D0204621
:1018E000FFF7B6FEE37923B9A37903F0FD03012BDB
:1018F00021D001232371A38B002BE6D141F272701A
:1019000038BD2389002BE5D00023626B02EB8302F4
:101910005288013325F8022B20899AB29042F4D8DC
:101920000020D8E7838BC28B9342D8D03ABF0133D3
:1019300083838283D3E72046FFF74AFCD9E705205B
:1019400038BD41F2707038BD0379022B38D010B524
:10195000C3790446012B07D000222379E271032BBF
:1019600018D041F2727010BD0389002BF4D000230F
:101970001A462169CA546169CA54A16941F82320F1
:101980002089013399B28842F3D800222379E27189
:10199000032BE6D1A36F1B7C5BB1A37903F0FD039E
:1019A000012B10D0E27901239A422371D9D1002072
:1019B00010BD2046FFF74CFEE279002AF3D1ECE798
:1019C00041F2707070472046FFF702FCEAE700BF63
:1019D0002DE9F04F664B026889B09A4200F02A84E4
:1019E0004B79044603F00303012B0E4600F0A0815F
:1019F0000023A6672371737903F00303012B00F022
:101A0000A3812189CBB200275A4D5B4A2888034421
:101A1000DBB2A4F868302B80584B02440344636166
:101A2000574B226103EB8003A361564B00EB400050
:101A300003EB8003636233786371F38CA783E383E2
:101A400096F8283083F00103E3717379092B04BF02
:101A50000123E3713379DB0003F0080384F82030BD
:101A6000707943EA801384F82030737884F8583012
:101A7000B37884F85930F37C84F85A30337D84F895
:101A80005B30737D84F85C30B37D84F85D30F37D2A
:101A900084F85E30337E84F85F30737E84F8603083
:101AA000B37E84F86130F37E84F86230337F84F84B
:101AB00063307379A371337903F0020384F87530CE
:101AC0007079C0F38000034384F87530B07943EA3D
:101AD000001384F875303379032B08D8DFE813F04E
:101AE00004000A030E035501022384F87430002910
:101AF0004AD0002084460346074616E0117992F842
:101B00000580B2F802E08A0242EA0862616A42EAAB
:101B10000E0241F82320218901339AB291420CF13F
:101B2000060C00F10C002FD92269D7546269D754F2
:101B3000A26942F823707179326A09296244DDD0C2
:101B400007290BD0117992F80580B2F802E08902DA
:101B5000626A41EA086141EA0E011150626A115855
:101B600002445160626A115802449160D3E700BF99
:101B7000555354436A030020680300206403002087
:101B80005C03002044030020002796F93C302246E5
:101B900084F87C3096F93D300C2184F87D3096F93C
:101BA0003E3084F87E3096F93C0000F05FFD22461E
:101BB0000C2196F93D0000F059FD22460C2196F9C2
:101BC0003E0000F053FD22892B8884F884709A42ED
:101BD00000F0BA8201977379072B40F09B80DFF801
:101BE0005CB2954DDBF8002042F48002CBF8002077
:101BF000DBF8002042F40002CBF800201F228BF813
:101C00000520DBF8282022F00052CBF82820DBF852
:101C1000282022F04002CBF828207279072A03D02E
:101C20002A78002A00F0B5804FF0010E834B4FF068
:101C3000000C1A6882496EF393421A605A68DFF802
:101C40001C826EF31D725A609A6A22F000629A62D8
:101C50009A6A22F080429A629A6A42F000529A622C
:101C60009A6A22F080029A629A6A42F040029A626C
:101C7000D1F8A42358685968C2F30742D3F80490F6
:101C8000C2EBC20AC1F30171C2EBCA0A4901C1EB3E
:101C9000AA11C0F30170C9F3017902EBC20AA2EBE9
:101CA00040104FEA491902EBCA02C9EBA212D3F85D
:101CB000009040F47C5041F4585142F4904292B26A
:101CC00080B289B229F48009C3F800909885D9853B
:101CD0001A861A6842F480021A60656584F804E086
:101CE000C4F80AC0F36AC4F88030336CC4E922C374
:101CF00084F890C0A4F892C0B6F84830A4F89430A4
:101D0000B6F84A30C4F80080A4F89630019809B0BB
:101D1000BDE8F08F494B01211A681E2042F4007281
:101D20001A601A6842F480721A6000F047FC56E7A5
:101D3000444A91F8243012881344DBB2022B7FF618
:101D400057AE03230193E1E73E4D3F4B2A883F48BE
:101D500002EB420103EB4103A3623D4B104403EB52
:101D60004103E3623B4B03EB410323633A4B03EB39
:101D70008203636396F82430E0661A44D2B21946AF
:101D800023812A80A4F864203DE6032384F874307C
:101D9000ADE6012105F10A00049029704FF4E053EB
:101DA0008246DBF800004FF0020840F48040CBF898
:101DB0000000DBF80000914662F3CF30CBF8000062
:101DC000DBF8000062F31040CBF80000DBF80800FD
:101DD00040F48030CBF80800DBF8080062F3514093
:101DE000CBF80800DBF8080062F39240CBF808005B
:101DF000DBF8080062F3D340CBF80800DBF8000002
:101E000061F39340CBF800006B60CBF80C10CBF87B
:101E10001020DBF8282042F08002CBF82820029620
:101E2000B9F1040F00F26E81DFE819F057014A01A1
:101E300014016C011A0000BF3002002000000D40A8
:101E400000C07E4040030020340300202C0200200C
:101E5000280300201C030020140300205553544382
:101E60001F224FF00009DFF8F8A3029EDAF80430D1
:101E7000DFF8D4B323F04053CAF80430DAF828303E
:101E8000594623F00053CAF82830DAF828304FF0CA
:101E9000020843F08043CAF82830934605964E4620
:101EA000DAF80030072E23F48003CAF8003000F27D
:101EB0003681AAF82CB04FF00009DAF8003020275C
:101EC00043F48003CAF8003002964E460391204640
:101ED000FFF746F884F804809AF8003043F00103D5
:101EE0008AF800302379032BFCD12B8907F1FF39C5
:101EF0001FFA89F716FA83F6002FE8D1B146DDE91B
:101F0000026101364FEA59130BF1200B0C2E21F818
:101F1000023F1FFA8BFBC3D118229146C84B059E86
:101F20000597D3F8A813DFF84CC30391D3F8A43373
:101F3000DDF810A0DBB20293039B23FA09F303F050
:101F4000C0018029DAB200F0FC80C02900F06A816B
:101F5000002900F05F814FF4C07302F07F02134448
:101F60004FF41602AAF80A30B2FBF3FE4FF4F00366
:101F70000493B44B1FFA8EF7A3FB0787BF0A05EB48
:101F8000470805EB470BC7EB0717B8F86880BBF8A5
:101F90006AB0FF01BFB2AEEB070EABEB08070EFB5A
:101FA00007F7A3FB07E73AF8020F08EB9727BFB242
:101FB0000003B0FBF7F062464FF4F003A24987B28A
:101FC00031F8020F07FB00F0000B22F8020F80B27D
:101FD000B3FBF0F003F5F003B3F1C36FA2F86000B8
:101FE000EED1BCF86410BCF862E0BCF81820BCF874
:101FF0007830BCF80400BCF87670A1EB0E0EC2F588
:102000007F4800FB0EFEDF1B08F1FF0808FB07F707
:10201000BCF80280A9F10809A0EB0800BEFBF0FEA5
:10202000A1EB0E01ACF86210BCF816100598521A1C
:10203000B7FBF2F21344ACF878304FF0FF3319F1EC
:10204000080FACF802002CF8183F7FF475AF02239C
:102050002B70E9E5DBF8003023F40063CBF80030A7
:10206000DBF8003023F40033CBF8003020270026C3
:10207000DBF8003043F44023CBF800302046FEF775
:102080006FFF84F804809BF8003043F001038BF865
:1020900000302379032BFCD12B89013FBFB216FA04
:1020A00083F6002FEAD172092AF8022F0122DBF809
:1020B000003009F1010962F39343CBF80030AFE639
:1020C000DBF8003043F40063CBF80030DBF800307D
:1020D00023F40033CBF80030C8E7DBF8003023F4FA
:1020E0000063CBF80030DBF8003043F40033CBF86A
:1020F0000030BBE7012384F87430F8E4002384F84F
:102100007430F4E4DBF8003043F40063CBF80030C3
:10211000DBF8003043F40033CBF80030A6E7DAF800
:10212000043043F04053CAF80430DAF8283043F062
:102130000063CAF82830ABF180039BB2AAF82C30B8
:10214000B9E64FF4007308E70423404D4049414885
:102150002B60FEF791FD01210A2000F02FFA3E4B83
:102160003B493C482B60FEF791FD3A48FEF7D2FC14
:10217000EFF31081012383F31088384B9A6822F023
:1021800008029A609B6881F31088A36F06AD1B6BF1
:102190005A6892E8030085E803009A680697294682
:1021A00080461268186890470746019078B9A36F77
:1021B000CDF818805B6B5A6892E8030085E803004D
:1021C0009A68069718682946136898470190244A28
:1021D00024491368244D23F480631360136843F08B
:1021E00020031360214B08681B6AC3F30261884017
:1021F000C3F30223D8401E4BA842A3FB00134FEAAF
:10220000934139D84B1E1168DBB221F44051116063
:10221000D370E0E4029B502B34BF4FF4C0734FF4F3
:1022200020739AE6029BA02B8CBF4FF480734FF46F
:10223000007392E60E230193019809B0BDE8F08F78
:1022400000C07E40898888889802002020010020F4
:10225000CC2D0000240200200000010C00400840AA
:1022600000000D40B80400203F8AF70100E0014063
:1022700083DE1B4350020020A1F121001F280CD94E
:1022800041393F2913D8022011681B0D013BDBB2F5
:1022900060F30D311160D3709DE401201168DB0CF7
:1022A000013BDBB260F30D311160D37093E4116830
:1022B0005B0D013BDBB241F440511160D3708AE405
:1022C000EFF30380103840B200F0C2B9EFF303809F
:1022D000103840B200F0BCB930B5D0F8883083B0C7
:1022E00004466D46002B47D093E8030085E80300C1
:1022F0000021224A1970517F880605D501211970E5
:10230000517F01F0DF0151771C4A117F3F290BD922
:10231000127F110627D4194A127F52061ED417497C
:102320000A7F42F020020A7703219DF800202171E4
:1023300084F88520D4F88C205A60D4F880200AB123
:1023400018469047D4F888301BB195E8030083E81D
:1023500003000023C4F80A3003B030BD1A7842F0FD
:1023600004021A70DBE71A7842F002021A70034A7C
:10237000127F5206D3D5F1E72B46B9E700000D4096
:1023800010B5EFF303830C4A103B5BB252F82340C5
:10239000EFF30380103840B200F05AF96289A38944
:1023A0009A4203D0012384F8843010BD2046BDE852
:1023B0001040FFF791BF00BFB0030020064B074954
:1023C00093F826001A6A51F82030C2F302620449D9
:1023D000D3400B60704700BF00E001403001002097
:1023E000B8040020704700BF2DE9F04101224AF2F5
:1023F00003584FF400414FF0080C09263C4C3D4B6C
:102400003D4D3E48DFF808E16560E5603C4FA3F8CC
:10241000FE83826002608EF8C82F3A4A2760A1606E
:102420002161626193F82620196A54F82220364D02
:10243000C1F30261CA402A6083F813C483F8A26022
:1024400093F880241AB993F881349F074BD0294E12
:1024500096F88034002B3BD00022264B83F8812451
:1024600083F88024234991F8A030DE06C3F30010DE
:10247000F9D4204A81F8A00092F8A030D906C3F31D
:102480000010F9D41B4982F8320091F83C301A0749
:10249000FBD54FF470600023164A088581F82A3076
:1024A00092F83C309B06FBD505234FF42540174995
:1024B000116282F8263092F82630116A54F82330DF
:1024C000C1F30261CB402B60A2F8FE03BDE8F081AE
:1024D0000121C82086F8801400F070F896F8803446
:1024E000012BFBD1B8E74FF47A70FFF77BFFB9E718
:1024F0003001002000E0014000127A00007000402E
:10250000006CDC020090D003B804002021120021EE
:1025100000F07E4038B50025224C0121C82084F807
:10252000285000F04BF884F8245094F82430002B05
:10253000FBD194F824301B4943F0020384F8243083
:1025400091F82430C3F340009B07F9D4154A81F871
:10255000220092F8223003F0FF00002BF9D192F80C
:102560004030104960F3C71382F8403091F8403092
:10257000DB09FBD191F842000A4A63F3C71081F8E6
:10258000420092F84230DB09FBD192F84400054941
:1025900063F3C71082F8440091F84430DB09FBD1A3
:1025A00038BD00BF00300840704700BF00BEFEE7E6
:1025B000A0F101000028FBD1704700BF4FF47A73EF
:1025C00010B400FB01F1114C114A2468B2FBF4F283
:1025D000A1FB03043CB9B0FBF2F0800860B15DF8E8
:1025E000044BFFF7E5BF9200B1FBF2F1A1FB03132F
:1025F0002BB908460028F2D15DF8044B70474FF024
:10260000FF3C5DF8044B6046FFF7D2BFB8040020E2
:1026100000CA9A3B70B500240B4B0C4EB3F8202136
:10262000B3F84051ADB2154025FA04F3DB0704D5E9
:1026300056F82430E0B203B198470134102CF3D19E
:10264000014BA3F8305170BD006000406C030020C6
:10265000054BC03053F8202022F4803243F820206C
:1026600053F82030704700BF0060004010B400F104
:10267000604C134C0901134BC9B20CF5614C8CF83A
:10268000001300F1C00144F8202053F8212022F467
:10269000803243F8212053F82130BFF35F8F0122AD
:1026A00043099B0000F01F0003F1604303F5614301
:1026B0008240C3F880211A605DF8044B704700BF68
:1026C000B00300200060004030B5032083B000F06C
:1026D00077F86FF0FF054FF0FF311D4C00232246C5
:1026E0004FF0010E1B488564CDE9001104F180050F
:1026F00032F8020F590960B102A800EB810151F8CC
:10270000080C03F01F0C0EFA0CFC20EA0C0041F838
:10271000080CAA4203F10103EAD1009A0E4B0D49BD
:1027200003200A67C3F88022019A4A67C3F884220B
:1027300000F016F80023094834F8022F03F1C00115
:1027400001330AB140F82120AC42F5D103B030BDCD
:10275000C22C00000080004000E100E0006000406A
:10276000EFF31081012383F31088124B33F810200C
:1027700092B22AB133F81020013A92B223F8102015
:1027800033F810309BB293B910B40B4A0B4CB2F82B
:10279000FE3334F810009BB243F4254323EA0003D0
:1027A000A2F8FE3381F310885DF8044B704781F383
:1027B00010887047B004002000E00140D82D0000D0
:1027C00030B4EFF31081012383F310880E4A32F8FE
:1027D00010309BB26BB90D4C0D4DB4F8FE3335F88B
:1027E00010C09BB243EA0C0343F425439BB2A4F808
:1027F000FE3332F8103001339BB222F8103081F3EF
:10280000108830BC704700BFB004002000E00140D9
:10281000D82D000000BE704708B500F003F8FDF7A2
:102820000DFDFEE74FF4700270B52B4B2B4CC3F837
:10283000882000209C60FDF7F5FCFFF7D5FD012006
:10284000FDF7F0FC2368A3F5806383F30A8824482E
:10285000244A0021121A00F033F92348234A24495C
:10286000121A00F035F9234D234B5B1B002B07DDBB
:1028700000249E1055F8043B01349847A642F9DC29
:10288000FFF79CFDFFF746FE0320FFF799FF0023AB
:102890004FF6FF70194903F108020133092B21F8A3
:1028A0001200F8D100240320FFF75AFF0320FFF79E
:1028B00087FF134B03205C609C60DC601C61FFF7AA
:1028C0004FFF0220FDF7AEFCFFF7FEFE2046BDE8FD
:1028D0007040FFF769BE00BF00ED00E0000000009F
:1028E00048010020F80500200001002030010020F0
:1028F000942E0000280100202C01002000FD014042
:1029000000000E400121034A034B117002781A7037
:10291000704700BFE5050020E40500202DE9F047E1
:10292000614B8CB0D3E900713846FDF78DFC00286F
:1029300047D138465D4CDFF880815D4EDFF87C91F1
:10294000DFF870A1FDF742FD002839D12378002B74
:10295000FCD00023414638461A462370FDF70AFE94
:10296000B0B9D8F8002040F2096112F0010218BF96
:1029700001224846FEF7D4F8D8F8003040F20A6148
:1029800003F002029B0748BF01224846FEF7C8F841
:102990003568BDB1282D30D03C2D26D0502D39D0F2
:1029A000782D08BF4FF0FF3514204FF47A710135B0
:1029B0003560FFF703FE3846FDF708FD0028C5D057
:1029C000FEE7FEE729462A2201A800F079F8294609
:1029D0002A2301AA5046FDF7FDFF2A4640F2016175
:1029E0004846FEF79DF83568DEE7012240F20161B6
:1029F0004846FEF795F83568D6E72A220F2101A848
:102A000000F05EF82A2300212A4801AAFDF7E2FF20
:102A10003568C9E70F23002203212648FDF7F2FF9E
:102A20000F2306220B212348FDF7ECFF0F230E2274
:102A300019462048FDF7E6FF0F23032210211D4809
:102A4000FDF7E0FF0F230A2216211A48FDF7DAFFEF
:102A50000F23072217211748FDF7D4FF0F23032266
:102A600018211448FDF7CEFF0F2306221D2111481F
:102A7000FDF7C8FF0F230B221E210E48FDF7C2FFF2
:102A80000F23052227210B48FDF7BCFF0F23282128
:102A90001A460848FDF7B6FF0F23052229210548ED
:102AA000FDF7B0FF35687FE7E02D0000E505002069
:102AB000E80500207C010020F005002064010020D2
:102AC00002440346934200D1704703F8011BF9E723
:102AD0000A44431E914200D1704710B511F8014BD2
:102AE000914203F8014FF9D110BDFFFF4275696CA7
:102AF0007420776974682052656E65736173204134
:102B00006476616E63656420466C657869626C65A5
:102B100020536F667477617265205061636B6167E3
:102B2000652076657273696F6E20352E382E300001
:102B3000352E382E3000000000000805F8B500BF23
:102B4000F8BC08BC9E467047F8B500BFF8BC08BC8E
:102B50009E4670474653505F535543434553532059
:102B60003D3D2065727200002E2E2F7372632F6818
:102B7000616C5F656E7472792E6300FF68616C5FD3
:102B8000656E74727900FFFF6C010020942B0000C9
:102B9000742D0000000100209C2B000000FFFFFFAF
:102BA00074010020AC2B0000742D000010010020E7
:102BB000B42B000001FFFFFF00070103000100002C
:102BC0001F000000CC2B0000000000000000010CE2
:102BD000020100000000010C030100000000010DD3
:102BE000040100000000010D050100000000010DBE
:102BF0000601000000000100080100000000010DB6
:102C00000B0100000000010D0C0100000000010D8F
:102C10000D0100000000010D0E0100000000010D7B
:102C2000050200000000010D060200000000010D79
:102C3000070200000000010D080200000000010072
:102C4000000300000000010D030300000000010D5F
:102C5000040300000000010D050300000000010D49
:102C6000060300000000010D070300000000010D35
:102C7000080400000000010D090400000000010D1F
:102C80000A0400000000010D0B0400000000010D0B
:102C90000C0400000000010D0D0400000000010CF8
:102CA000000500000400000001060000050000000F
:102CB00009060000050000000A0600000000010DE2
:102CC000000700009A009B009C000000000000002C
:102CD00000000000000000000000000000000000F4
:102CE00000000000000000000000000000000000E4
:102CF00000000000000000000000000000000000D4
:102D000000000000000000000000000000000000C3
:102D100000000000000000000000000000000000B3
:102D200000000000000000000000000000000000A3
:102D30000000000000000000000000000000000093
:102D40000000000049020000CD03000075050000EE
:102D500019050000E1030000E5030000390500004B
:102D6000F90300007D0400001105000002040304C3
:102D70000404FFFF810E0000F90D0000990C000013
:102D80002D0D00004D0D0000250D0000290D000047
:102D90006D0D0000C90D0000C10D0000C50D000043
:102DA000D119000051100000AD18000031150000CD
:102DB0003D130000510F0000BD1400004D13000032
:102DC00071140000350F00004919000001000000D7
:102DD0002001002000000000010002000800100097
:102DE000C0040020EC2D0000442D0000182E00002F
:102DF00000000000000000000000000002000003CE
:102E00000300FF0000000000242E0000000000006E
:102E1000000000000000000000009C7E540601003D
:102E200020790E0648050020302E0000A02D00005D
:102E30000000000001010000000000000000000090
:102E4000000000030000000000000000000000007F
:102E5000842E00000200040001000000052900008B
:102E6000882B0000A02B00000000000000010200E1
:102E70000000000000000000002D002800000000FD
:102E8000000000000000EF00070F00000201070F24
:042E9000000000003E
:102E94000000101800000000000000000000000006
:102EA4000000081000000000000000000000000006
:102EB4000000000000050000AD01000085010000D5
:020000040100F9
:10A10000FFFFFFFFFFFFFFFFFFFFFFFFFFFFFFFF5F
:04A11000FFFFFFFF4F
:04A13400FFFFFFFF2B
:10A20000FEF1FFFFFFFFFFFFFFFFFFFFFFFFFFFF6D
:10A21000FFFFFFFFFFFFFFFFFFFFFFFFFFFFFFFF4E
:10A22000FFFFFFFFFFFFFFFFFFFFFFFFFFFFFFFF3E
:10A23000FFFFFFFFFFFFFFFFFFFFFFFFFFFFFFFF2E
:10A24000FFFFFFFFFFFFFFFFFFFFFFFFFFFFFFFF1E
:10A25000FFFFFFFFFFFFFFFFFFFFFFFFFFFFFFFF0E
:10A26000FFFFFFFFFFFFFFFFFFFFFFFFFFFFFFFFFE
:10A27000FFFFFFFFFFFFFFFFFFFFFFFFFFFFFFFFEE
:10A28000F8F0FFFFFFFFFFFFFFFFFFFFFFFFFFFFF4
:10A29000FFFFFFFFFFFFFFFFFFFFFFFFFFFFFFFFCE
:10A2A000FFFFFFFFFFFFFFFFFFFFFFFFFFFFFFFFBE
:10A2B000FFFFFFFFFFFFFFFFFFFFFFFFFFFFFFFFAE
:10A2C000FFFFFFFFFFFFFFFFFFFFFFFFFFFFFFFF9E
:0400000300002819B8
:00000001FF
