S01A00005241344C315F4C43445F50726F6A656374322E737265632C
S31500000000A004002081090000F50700007D0900001A
S315000000107D0900007D0900007D0900007D090000C2
S315000000200000000000000000000000007D09000044
S315000000307D090000000000007D0900007D09000028
S315000000400348044B834202D0034B03B11847704761
S31500000050080000200800002000000000064B0749A9
S31500000060C91A891048BF0131491003D0044B0BB19E
S3150000007001481847704700BF08000020080000200C
S315000000800000000010B5064C237843B9FFF7D8FFEF
S31500000090044B13B10448AFF300800123237010BD55
S315000000A02000002000000000AC0C000008B5054B45
S315000000B01BB105490548AFF30080BDE80840FFF7CE
S315000000C0CDBF00BF0000000024000020AC0C0000E3
S315000000D010B580499AB0804800F052F928B1142131
S315000000E07E4B7F4A7F4800F051FB4FF47A71052022
S315000000F000F054FB784800F031F90446002840F03F
S31500000100E380794B0DF1040C93E807008CE80700B7
S31500000110214640F20E3462460C236F4800F0F8F890
S315000001204FF47A714FF4FA6000F038FB02236A4606
S315000001300F216948ADF8004000F0EAF84FF47A71F3
S315000001404FF4FA6000F02AFB0F230A2216216248B8
S3150000015000F0F6F84FF47A714FF4FA6000F01EFBE7
S315000001600F23072217215C4800F0EAF84FF47A7152
S315000001704FF4FA6000F012FB0F23032218215648B1
S3150000018000F0DEF80F2306221D21534800F0D8F8B0
S315000001904FF47A714FF4FA6000F000FB0F230B2244
S315000001A01E214D4800F0CCF80F23052227214A488E
S315000001B000F0C6F84FF47A714FF4FA6000F0EEFAE8
S315000001C00F2328211A46444800F0BAF80F230522C7
S315000001D02921414800F0B4F84FF47A714FF4FA60DF
S315000001E000F0DCFA3C4C2A22002104A800F03EFC78
S315000001F02A2304AA0021204600F08AF84FF47A71D7
S315000002004FF4FA6000F0CAFA2A220F210FA800F074
S315000002102DFC0FAA2A230021204600F079F84FF47E
S315000002207A714FF4FA6000F0B9FA0F230022032125
S31500000230204600F085F80F2306220B21204600F009
S315000002407FF80F230E221946204600F079F80F2377
S3150000025003221021204600F073F80F230A221621EC
S31500000260204600F06DF80F2307221721204600F0E4
S3150000027067F80F2303221821204600F061F80F23A8
S3150000028006221D21204600F05BF80F230B221E21BB
S31500000290204600F055F80F2305222721204600F0BE
S315000002A04FF80F2328211A46204600F049F80F235D
S315000002B005222921204600F043F84FF47A714FF4C5
S315000002C0FA6000F06BFA8EE71A21044B044A0548DF
S315000002D000F05CFA400B000044000020000B000018
S315000002E0280B0000140B0000340B0000022800D07D
S315000002F070470249024800F047B900BF480B0000AA
S315000003003C00002008B5FFF7E3FE002008BD00BF53
S315000003108BB1084670B5094E8D1A12F8014B06EBE3
S31500000320000E5019C0B2A0EB010C9C458EF800419E
S31500000330F3DB002070BD0020704700BF00400D4079
S3150000034001F1402101F5502191F800C100202CEA6D
S31500000350030C42EA0C0281F80021704743685B797E
S3150000036023B1064A537843F020035370034A002012
S31500000370537843F0C0035370704700BF00400D40F0
S3150000038070B506460C46EFF31080012282F3108802
S315000003902A4B996821F0100199609B6880F31088B8
S315000003A02749284D91F885310020134381F885317E
S315000003B0E379DB0143F00403DBB2EB702379617967
S315000003C05B0103EB8113A1780B44E17803EB810316
S315000003D0DBB22B706A7000F0A7FA1B4B002093F873
S315000003E0502022F0800283F850206278AA7022788A
S315000003F083F8502093F8502093F8502042F0800262
S3150000040083F8502000F060FA6379012B09D00422AA
S31500000410EB78002062F30403EB700C4BC6E9003462
S3150000042070BDEA78A37902F0800204331343DBB28D
S31500000430EB70064B0020C6E9003470BD0040084052
S3150000044000F8014000400D4000E0014044434C5399
S315000004502DE9F8430388BBB107464FF00008DFF8E3
S31500000460789000241B4D4FEAC8067B6835F8022BAE
S3150000047099198988914209D00134032CF5D13B881A
S3150000048008F101084345ECD8BDE8F8839B5904F10F
S31500000490200203F0B853B3F1807F19F812300CD064
S315000004A0DB09E9D019F81230012123F08003C820B6
S315000004B009F8123000F072F9DEE7DB09DCD119F831
S315000004C01230012143F08003C82009F8123000F0F1
S315000004D065F9D1E71C0C000000300840F8B5064667
S315000004E0FFF7B6FFEFF31082012383F31088234F43
S315000004F03B681BB92249CB704023CB703B68013364
S315000005003B6082F31088338823B300211D4D08E039
S315000005101B01134445F82340328801318BB29A42BD
S3150000052018D9736853F8314003EBC1029288E0038F
S315000005304FEA1223D2B2EBD502EB031055F820E0B6
S3150000054024F4803C2EF4803E45F820E01B0145F85B
S3150000055020C0DEE7EFF31082012383F310883B68A7
S3150000056013B13B68013B3B603B681BB980200449E3
S31500000570CB70C87082F31088F8BD00BF90000020D1
S3150000058000FD014000F8014008B5034B0360084632
S31500000590FFF7A4FF002008BD54524F50064B0749F1
S315000005A093F826001A6A51F82030C2F30262044911
S315000005B0D3400B60704700BF00E0014008000020F8
S315000005C09C000020704700BF2DE9F04101224AF24D
S315000005D003584FF400414FF0080C09263C4C3D4BA4
S315000005E03D4D3E48DFF808E16560E5603C4FA3F805
S315000005F0FE83826002608EF8C82F3A4A2760A160A7
S315000006002161626193F82620196A54F82220364D3A
S31500000610C1F30261CA402A6083F813C483F8A2605A
S3150000062093F880241AB993F881349F074BD0294E4A
S3150000063096F88034002B3BD00022264B83F8812489
S3150000064083F88024234991F8A030DE06C3F3001016
S31500000650F9D4204A81F8A00092F8A030D906C3F355
S315000006600010F9D41B4982F8320091F83C301A0781
S31500000670FBD54FF470600023164A088581F82A30AE
S3150000068092F83C309B06FBD505234FF425401749CD
S31500000690116282F8263092F82630116A54F8233017
S315000006A0C1F30261CB402B60A2F8FE03BDE8F081E6
S315000006B00121C82086F8801400F070F896F880347E
S315000006C0012BFBD1B8E74FF47A70FFF77BFFB9E750
S315000006D00800002000E0014000127A00007000408F
S315000006E0006CDC020090D0039C0000202112002147
S315000006F000F07E4038B50025224C0121C82084F840
S31500000700285000F04BF884F8245094F82430002B3D
S31500000710FBD194F824301B4943F0020384F82430BB
S3150000072091F82430C3F340009B07F9D4154A81F8A9
S31500000730220092F8223003F0FF00002BF9D192F844
S315000007404030104960F3C71382F8403091F84030CA
S31500000750DB09FBD191F842000A4A63F3C71081F81E
S31500000760420092F84230DB09FBD192F84400054979
S3150000077063F3C71082F8440091F84430DB09FBD1DB
S3150000078038BD00BF00300840704700BF00BEFEE71E
S31500000790A0F101000028FBD1704700BF4FF47A7327
S315000007A010B400FB01F1114C114A2468B2FBF4F2BB
S315000007B0A1FB03043CB9B0FBF2F0800860B15DF820
S315000007C0044BFFF7E5BF9200B1FBF2F1A1FB031367
S315000007D02BB908460028F2D15DF8044B70474FF05C
S315000007E0FF3C5DF8044B6046FFF7D2BF9C0000203B
S315000007F000CA9A3B70B500240B4B0C4EB3F820216F
S31500000800B3F84051ADB2154025FA04F3DB0704D521
S3150000081056F82430E0B203B198470134102CF3D1D6
S31500000820014BA3F8305170BD00600040500000201D
S3150000083030B5032083B000F077F86FF0FF054FF076
S31500000840FF311D4C002322464FF0010E1B488564E4
S31500000850CDE9001104F1800532F8020F590960B1A3
S3150000086002A800EB810151F8080C03F01F0C0EFAE8
S315000008700CFC20EA0C0041F8080CAA4203F1010323
S31500000880EAD1009A0E4B0D4903200A67C3F880226D
S31500000890019A4A67C3F8842200F016F80023094833
S315000008A034F8022F03F1C00101330AB140F82120C8
S315000008B0AC42F5D103B030BD220C000000800040F0
S315000008C000E100E000600040EFF31081012383F3B4
S315000008D01088124B33F8102092B22AB133F8102048
S315000008E0013A92B223F8102033F810309BB293B934
S315000008F010B40B4A0B4CB2F8FE3334F810009BB21E
S3150000090043F4254323EA0003A2F8FE3381F310885B
S315000009105DF8044B704781F31088704794000020FF
S3150000092000E00140A40C000030B4EFF31081012375
S3150000093083F310880E4A32F810309BB26BB90D4C17
S315000009400D4DB4F8FE3335F810C09BB243EA0C03E4
S3150000095043F425439BB2A4F8FE3332F8103001333A
S315000009609BB222F8103081F3108830BC704700BF6C
S315000009709400002000E00140A40C000000BE704777
S3150000098008B500F003F8FFF7BDFCFEE74FF4700270
S3150000099070B52B4B2B4CC3F8882000209C60FFF7CA
S315000009A0A5FCFFF711FE0120FFF7A0FC2368A3F5C5
S315000009B0806383F30A882448244A0021121A00F02F
S315000009C055F82348234A2449121A00F057F8234DB4
S315000009D0234B5B1B002B07DD00249E1055F8043BC0
S315000009E001349847A642F9DCFFF7D8FDFFF782FEEF
S315000009F00320FFF799FF00234FF6FF70194903F113
S31500000A0008020133092B21F81200F8D10024032033
S31500000A10FFF75AFF0320FFF787FF134B03205C60A5
S31500000A209C60DC601C61FFF74FFF0220FFF75EFC55
S31500000A30FFF7FEFE2046BDE87040FFF7A5BE00BFEB
S31500000A4000ED00E00000000020000020A0000020D3
S31500000A500000002008000020B00C0000000000206C
S31500000A600400002000FD014000000E400244034641
S31500000A70934200D1704703F8011BF9E70A44431E6D
S31500000A80914200D1704710B511F8014B914203F81D
S31500000A90014FF9D110BDFFFF4275696C742077696B
S31500000AA074682052656E6573617320416476616E69
S31500000AB063656420466C657869626C6520536F6671
S31500000AC07477617265205061636B61676520766536
S31500000AD07273696F6E20352E382E3000352E382E03
S31500000AE03000000000000805F8B500BFF8BC08BCDF
S31500000AF09E467047F8B500BFF8BC08BC9E467047D6
S31500000B004653505F53554343455353203D3D20655F
S31500000B10727200002E2E2F7372632F68616C5F65F0
S31500000B206E7472792E6300FF68616C5F656E747215
S31500000B307900FFFF00000000000000000000000632
S31500000B40001101030001000019000000540B000011
S31500000B50000000000000010D040100000000010D6E
S31500000B60050100000000010D060100000000010063
S31500000B70080100000000010D0B0100000000010D3E
S31500000B800C0100000000010D0D0100000000010D28
S31500000B900E0100000000010D050200000000010D1D
S31500000BA0060200000000010D070200000000010D12
S31500000BB00802000000000100000300000000010D13
S31500000BC0030300000000010D040300000000010DF6
S31500000BD0050300000000010D060300000000010DE2
S31500000BE0070300000000010D080400000000010DCD
S31500000BF0090400000000010D0A0400000000010DB8
S31500000C000B0400000000010D0C0400000000010DA3
S31500000C100D0400000000010D00070000020403049B
S31500000C200404FFFF000000000000000000000000B8
S31500000C3000000000000000000000000000000000AE
S31500000C40000000000000000000000000000000009E
S31500000C50000000000000000000000000000000008E
S31500000C60000000000000000000000000000000007E
S31500000C70000000000000000000000000000000006E
S31500000C80000000000000000000000000000000005E
S31500000C90000000000000000000000000000000004E
S31500000CA00000000001000200080010000000000023
S30D00000CB0AD0000008500000004
S3150100A100FFFFFFFFFFFFFFFFFFFFFFFFFFFFFFFF58
S3090100A110FFFFFFFF48
S3090100A134FFFFFFFF24
S3150100A200FEF1FFFFFFFFFFFFFFFFFFFFFFFFFFFF66
S3150100A210FFFFFFFFFFFFFFFFFFFFFFFFFFFFFFFF47
S3150100A220FFFFFFFFFFFFFFFFFFFFFFFFFFFFFFFF37
S3150100A230FFFFFFFFFFFFFFFFFFFFFFFFFFFFFFFF27
S3150100A240FFFFFFFFFFFFFFFFFFFFFFFFFFFFFFFF17
S3150100A250FFFFFFFFFFFFFFFFFFFFFFFFFFFFFFFF07
S3150100A260FFFFFFFFFFFFFFFFFFFFFFFFFFFFFFFFF7
S3150100A270FFFFFFFFFFFFFFFFFFFFFFFFFFFFFFFFE7
S3150100A280F8F0FFFFFFFFFFFFFFFFFFFFFFFFFFFFED
S3150100A290FFFFFFFFFFFFFFFFFFFFFFFFFFFFFFFFC7
S3150100A2A0FFFFFFFFFFFFFFFFFFFFFFFFFFFFFFFFB7
S3150100A2B0FFFFFFFFFFFFFFFFFFFFFFFFFFFFFFFFA7
S3150100A2C0FFFFFFFFFFFFFFFFFFFFFFFFFFFFFFFF97
S7050000098170
